:020000040800F2
:100000000000000041000008000000003D01000861
:1000100000000000000000007B000008000000005D
:100020000000000000000000000000009D0100082A
:10003000000000000000000000000000D1010008E6
:10004000DFF83CD000F0E2F800F0EAF900F002F945
:100050004FF000004FF011314FF022324FF03333A8
:100060004FF0443C4FF0553EFFFFFFFF01DF00F033
:10007000A3F800F083F803488047684600F0F2B820
:10008000000001207303000810B5203AC0F00B8077
:10009000B1E81850203AA0E81850B1E81850A0E88C
:1000A0001850BFF4F5AF5FEA027C24BFB1E81850E6
:1000B000A0E8185044BF18C918C0BDE810405FEA56
:1000C000827C24BF51F8043B40F8043B08BF7047D2
:1000D000D20728BF31F8023B48BF11F8012B28BFD7
:1000E00020F8023B48BF00F8012B70474FF0000298
:1000F00000B5134694469646203922BFA0E80C501E
:10010000A0E80C50B1F12001BFF4F7AF090728BFF8
:10011000A0E80C5048BF0CC05DF804EB890028BF74
:1001200040F8042B08BF704748BF20F8022B11F09D
:10013000804F18BF00F8012B7047000002A000F0AC
:1001400063F900BFFEE70000486172644661756CA8
:10015000745F48616E646C65720A0D000146064862
:1001600021B1026822F00102026003E0026842F05D
:1001700001020260704700000C0C01400548016854
:1001800041F0080101600448016841F0010101608B
:100190007047000018100240000C014010B502A08A
:1001A00000F032F910BD00005356435F48616E64A1
:1001B0006C65720A0D0000000348044981604160CB
:1001C000072101607047000010E000E000127A0093
:1001D00010B50C4C0C48006818B10020FFF7BEFFAA
:1001E00002E00120FFF7BAFF0748006808B90120C4
:1001F00000E0002004490860606840F00070606022
:1002000010BD000000ED00E00000002010B509481E
:100210000949884202D0094AFFF736FF08480949D0
:10022000884202D0084AFFF72FFF08490848FFF725
:100230005DFF10BD00000008000000087004000011
:10024000000000207004000804000000000000000E
:10025000040000200248416A41F480214162704755
:1002600000ED00E070B50446144D15A000F0CCF888
:1002700019A0216800F08AF819A0616800F086F8DA
:1002800019A0A16800F082F819A0E16800F07EF8DA
:1002900019A0216900F07AF819A0616900F076F8D8
:1002A00019A0A16900F072F819A0E16900F06EF8D8
:1002B000A86AA862A069001DA06170BD00ED00E001
:1002C00055736167654661756C745F48616E646CF7
:1002D00065720A0D00000000523020203D20000011
:1002E000523120203D200000523220203D200000CD
:1002F000523320203D200000523132203D200000AA
:100300004C5220203D200000504320203D20000082
:10031000785053523D20000008B502461068009006
:100320000868009B18440090009808BD044900BF6D
:10033000086800F020000028FAD0486870470000E4
:100340000038014070B503460C4603E025781D7067
:10035000641C5B1C151EA2F10102F7D170BD30B503
:10036000034601E019705B1C141EA2F10102F9D1D1
:1003700030BD0EB5012002900220019001A902A813
:10038000FFF7CAFF009000200EBD000070B50546C3
:100390000C46284600F038F8204600F013F802A07A
:1003A00000F032F870BD00000D0A0000044900BFE3
:1003B0000A6802F08002002AFAD048607047000004
:1003C0000038014070B506460EA000F01DF8072564
:1003D00014E0A80026FA00F000F00F04002C07DB60
:1003E000092C05DC04F13001C8B2FFF7DFFF04E09F
:1003F00004F13701C8B2FFF7D9FF6D1E002DE8DA0E
:1004000070BD00003078000010B5044603E020788D
:10041000FFF7CCFF641C20780028F8D110BD000045
:1004200010491148026844F204031A4302600F485D
:10043000026822F0F0020260026842F0900202605C
:10044000026822F470620260026842F48062026014
:1004500045228A6042F20C02CA600A6922F44052C4
:100460000A6170470038014018100240040801403A
:040470000000000088
:0400000500000000F7
:00000001FF
