:020000040800F2
:100000000000000041000008000000005D01000841
:1000100000000000000000007B000008000000005D
:10002000000000000000000000000000BD0100080A
:100030000000000000000000000000008B0000082D
:10004000DFF85CD000F00CF900F08CFA00F02CF92D
:100050004FF000004FF011314FF022324FF03333A8
:100060004FF0443C4FF0553EFFFFFFFF01DF00F033
:10007000B3F800F093F80B488047684600F01CB9CD
:10008000B0E8F00F80F3088808472DE9F00F00B5BD
:10009000704601A900F0AAF801BCBDE8F00F0047C6
:1000A000000001203904000810B5203AC0F00B8090
:1000B000B1E81850203AA0E81850B1E81850A0E86C
:1000C0001850BFF4F5AF5FEA027C24BFB1E81850C6
:1000D000A0E8185044BF18C918C0BDE810405FEA36
:1000E000827C24BF51F8043B40F8043B08BF7047B2
:1000F000D20728BF31F8023B48BF11F8012B28BFB7
:1001000020F8023B48BF00F8012B70474FF0000277
:1001100000B5134694469646203922BFA0E80C50FD
:10012000A0E80C50B1F12001BFF4F7AF090728BFD8
:10013000A0E80C5048BF0CC05DF804EB890028BF54
:1001400040F8042B08BF704748BF20F8022B11F07D
:10015000804F18BF00F8012B7047000002A000F08C
:10016000CDF900BFFEE70000486172644661756C1E
:10017000745F48616E646C65720A0D000146064842
:1001800021B1026822F00102026003E0026842F03D
:1001900001020260704700000C0C01400548016834
:1001A00041F0080101600448016841F0010101606B
:1001B0007047000018100240000C014010B502A06A
:1001C00000F09CF910BD00005356435F48616E6417
:1001D0006C65720A0D00000003484FF4FA5181600B
:1001E000416007210160704710E000E02DE9F04711
:1001F00006468846184F786840F00070786000F036
:10020000FDF808B9BDE8F08714480068401C60B9E3
:100210000020124908600846006800F0DBF88146BB
:1002200031464846FFF72CFFECE70C48056800F024
:10023000C3F80446A5420DD04146284600F06AF9AD
:10024000204600F0C7F8814604480460314648461D
:10025000FFF716FF00BFD5E700ED00E00800002023
:1002600010B509480949884202D0094AFFF71CFF26
:1002700008480949884202D0084AFFF715FF084993
:100280000848FFF743FF10BD000000080000000809
:10029000B405000000000020B40500080C000000B8
:1002A000800C00000C0000200248416A41F48021CB
:1002B0004162704700ED00E070B50446144D15A092
:1002C00000F01CF919A0216800F0DAF819A06168A3
:1002D00000F0D6F819A0A16800F0D2F819A0E168E2
:1002E00000F0CEF819A0216900F0CAF819A06169E0
:1002F00000F0C6F819A0A16900F0C2F819A0E169E0
:1003000000F0BEF8A86AA862A069001DA06170BDD7
:1003100000ED00E055736167654661756C745F4878
:10032000616E646C65720A0D00000000523020207E
:100330003D200000523120203D200000523220207C
:100340003D200000523320203D2000005231322059
:100350003D2000004C5220203D2000005043202032
:100360003D200000785053523D200000F0B5044677
:10037000D01840380025056045608560C56005617E
:1003800045618561C561016245628562C56205633B
:10039000456384634FF08075C563054D2E682D68F5
:1003A0006D1C034F3D60034D45F82600F0BD000075
:1003B000000000200C0C002004490868401C04497F
:1003C0000968884200DB0020704700000800002018
:1003D000000000200146024850F82100704700004C
:1003E0000C0C0020044900BF086800F02000002821
:1003F000FAD04868704700000038014001480068A2
:10040000704700000400002070B503460C4603E06E
:1004100025781D70641C5B1C151EA2F10102F7D12A
:1004200070BD30B5034601E019705B1C141EA2F1CB
:100430000102F9D130BD000010B54FF480630B4AC2
:1004400061210B48FFF792FF4FF48063094A622154
:100450000748FFF78BFF4FF48063074A00210748E6
:10046000FFF784FF00F05CF8002010BD0C000020B6
:10047000310500080C0400200C080020410500088C
:1004800070B505460C46284600F038F8204600F0C6
:1004900013F802A000F032F870BD00000D0A000051
:1004A000044900BF0A6802F08002002AFAD04860BE
:1004B000704700000038014070B506460EA000F0FD
:1004C0001DF8072514E0A80026FA00F000F00F043C
:1004D000002C07DB092C05DC04F13001C8B2FFF762
:1004E000DFFF04E004F13701C8B2FFF7D9FF6D1E4A
:1004F000002DE8DA70BD00003078000010B5044629
:1005000003E02078FFF7CCFF641C20780028F8D1A6
:1005100010BD0000014A42F8201070470C0C00206A
:1005200001200249086000BFFEE70000040000202F
:100530000446E5B202E02846FFF7B2FFFBE7000001
:100540000025002401E02544641C642CFBDD03E04D
:10055000294602A0FFF794FFFAE7000073756D20AB
:100560003D20000010491148026844F204031A4378
:1005700002600F48026822F0F0020260026842F056
:1005800090020260026822F470620260026842F423
:100590008062026045228A6042F20C02CA600A69E7
:1005A00022F440520A61704700380140181002409E
:1005B000040801400000000000000000FFFFFFFFF2
:0400000500000000F7
:00000001FF
