:020000040800F2
:100000000000000041000008000000004D01000851
:1000100000000000000000007B000008000000005D
:10002000000000000000000000000000AD0100081A
:10003000000000000000000000000000890000082F
:10004000DFF84CD000F0EEF800F03EFA00F00EF9C8
:100050004FF000004FF011314FF022324FF03333A8
:100060004FF0443C4FF0553EFFFFFFFF01DF00F033
:10007000ABF800F08BF807488047684600F0FEB800
:10008000B0E8F00F85460847704600F0A9F8000078
:1000900000000120E103000810B5203AC0F00B80F9
:1000A000B1E81850203AA0E81850B1E81850A0E87C
:1000B0001850BFF4F5AF5FEA027C24BFB1E81850D6
:1000C000A0E8185044BF18C918C0BDE810405FEA46
:1000D000827C24BF51F8043B40F8043B08BF7047C2
:1000E000D20728BF31F8023B48BF11F8012B28BFC7
:1000F00020F8023B48BF00F8012B70474FF0000288
:1001000000B5134694469646203922BFA0E80C500D
:10011000A0E80C50B1F12001BFF4F7AF090728BFE8
:10012000A0E80C5048BF0CC05DF804EB890028BF64
:1001300040F8042B08BF704748BF20F8022B11F08D
:10014000804F18BF00F8012B7047000002A000F09C
:100150009FF900BFFEE70000486172644661756C5C
:10016000745F48616E646C65720A0D000146064852
:1001700021B1026822F00102026003E0026842F04D
:1001800001020260704700000C0C01400548016844
:1001900041F0080101600448016841F0010101607B
:1001A0007047000018100240000C014010B502A07A
:1001B00000F06EF910BD00005356435F48616E6455
:1001C0006C65720A0D0000000348044981604160BB
:1001D000072101607047000010E000E000127A0083
:1001E00070B504460D4D686840F00070686000F01E
:1001F000D9F800B970BD0A480068401C58B9002001
:10020000074908600846006800F0B8F8064621462D
:100210003046FFF735FF00BFECE7000000ED00E0DF
:100220000800002010B509480949884202D0094A4F
:10023000FFF732FF08480949884202D0084AFFF711
:100240002BFF08490848FFF759FF10BD00000008C0
:100250000000000818050000000000201805000834
:100260000C000000800800000C0000200248416AD9
:1002700041F480214162704700ED00E070B5044612
:10028000144D15A000F004F919A0216800F0C2F87F
:1002900019A0616800F0BEF819A0A16800F0BAF8D2
:1002A00019A0E16800F0B6F819A0216900F0B2F8D1
:1002B00019A0616900F0AEF819A0A16900F0AAF8D0
:1002C00019A0E16900F0A6F8A86AA862A069001D5B
:1002D000A06170BD00ED00E0557361676546617512
:1002E0006C745F48616E646C65720A0D00000000FA
:1002F000523020203D200000523120203D200000BF
:10030000523220203D200000523320203D200000AA
:10031000523132203D2000004C5220203D20000070
:10032000504320203D200000785053523D200000D3
:10033000F0B50446D018403800250560456085605A
:10034000C560056145618561C5610162456285627F
:10035000C5620563456384634FF08075C563054DD1
:100360002E682D686D1C034F3D60034D45F8260037
:10037000F0BD0000000000200C08002001460248EB
:1003800050F82100704700000C080020044900BF0D
:10039000086800F020000028FAD048687047000084
:1003A0000038014001480068704700000400002048
:1003B00070B503460C4603E025781D70641C5B1C79
:1003C000151EA2F10102F7D170BD30B5034601E060
:1003D00019705B1C141EA2F10102F9D130BD00009E
:1003E00010B54FF48063084A61210848FFF7A0FF69
:1003F0004FF48063064A62210448FFF799FF00F03A
:1004000053F8002010BD00000C000020B9040008C3
:100410000C04002070B505460C46284600F038F85C
:10042000204600F013F802A000F032F870BD000082
:100430000D0A0000044900BF0A6802F08002002A89
:10044000FAD04860704700000038014070B5064699
:100450000EA000F01DF8072514E0A80026FA00F011
:1004600000F00F04002C07DB092C05DC04F130013F
:10047000C8B2FFF7DFFF04E004F13701C8B2FFF7AD
:10048000D9FF6D1E002DE8DA70BD00003078000045
:1004900010B5044603E02078FFF7CCFF641C2078F9
:1004A0000028F8D110BD000001200249086000BFFB
:1004B000FEE70000040000200446E5B202E0284602
:1004C000FFF7B8FFFBE7000010491148026844F24B
:1004D00004031A4302600F48026822F0F00202602F
:1004E000026842F090020260026822F470620260C8
:1004F000026842F48062026045228A6042F20C0285
:10050000CA600A6922F440520A617047003801400B
:100510001810024004080140000000000000000024
:04052000FFFFFFFFDB
:0400000500000000F7
:00000001FF
